{
  "contractName": "Delegator",
  "abi": [
    {
      "inputs": [
        {
          "name": "target",
          "type": "address"
        }
      ],
      "payable": false,
      "stateMutability": "nonpayable",
      "type": "constructor"
    },
    {
      "payable": false,
      "stateMutability": "nonpayable",
      "type": "fallback"
    },
    {
      "constant": false,
      "inputs": [],
      "name": "initialize",
      "outputs": [],
      "payable": false,
      "stateMutability": "nonpayable",
      "type": "function"
    }
  ],
  "bytecode": "0x6060604052341561000f57600080fd5b604051602080610322833981016040528080519060200190919050506100478161004d640100000000026100b4176401000000009004565b50610140565b806000806101000a81548173ffffffffffffffffffffffffffffffffffffffff021916908373ffffffffffffffffffffffffffffffffffffffff1602179055508073ffffffffffffffffffffffffffffffffffffffff1660405180807f696e697469616c697a6528290000000000000000000000000000000000000000815250600c01905060405180910390207c010000000000000000000000000000000000000000000000000000000090046040518163ffffffff167c01000000000000000000000000000000000000000000000000000000000281526004016000604051808303818661646e5a03f4925050505050565b6101d38061014f6000396000f300606060405260043610610041576000357c0100000000000000000000000000000000000000000000000000000000900463ffffffff1680638129fc1c1461009d575b341561004c57600080fd5b60008060009054906101000a900473ffffffffffffffffffffffffffffffffffffffff1690503660008037600080366000846127105a03f43d806000803e816000811461009857816000f35b816000fd5b34156100a857600080fd5b6100b06100b2565b005b565b806000806101000a81548173ffffffffffffffffffffffffffffffffffffffff021916908373ffffffffffffffffffffffffffffffffffffffff1602179055508073ffffffffffffffffffffffffffffffffffffffff1660405180807f696e697469616c697a6528290000000000000000000000000000000000000000815250600c01905060405180910390207c010000000000000000000000000000000000000000000000000000000090046040518163ffffffff167c01000000000000000000000000000000000000000000000000000000000281526004016000604051808303818661646e5a03f49250505050505600a165627a7a72305820cc8f0d01ec9474007f25d987b5f1632abaa63e46fb968baf0105331a723c94b20029",
  "source": "pragma solidity^0.4.19;\r\nimport \"./Upgradable.sol\";\r\ncontract Delegator is Upgradable{\r\n\tfunction Delegator(address target){\r\n\t\treplace(target);\r\n\t}\r\n\tfunction initialize(){\r\n\t\trevert;\r\n\t}\r\n\tfunction(){\r\n\t\t var target = destination;\r\n\t\t assembly { \r\n\t\t\tcalldatacopy(0x0, 0x0, calldatasize)    \r\n\t\t\tlet success := delegatecall(sub(gas, 10000), target, 0x0, calldatasize, 0, 0)    \r\n\t\t\tlet retSz := returndatasize   \r\n\t\t\treturndatacopy(0, 0, retSz)  \r\n\t\t\tswitch success      \r\n\t\t\tcase 0 {    \r\n\t\t\t\trevert(0, retSz)    \r\n\t\t\t}            \r\n\t\t\tdefault {\r\n\t\t\t\treturn(0, retSz)\r\n\t\t\t}  \r\n\t\t} \r\n\t\t\r\n\t}\r\n\r\n}\r\n",
  "sourcePath": "E:\\Blockchain\\Major Project\\contracts\\contracts\\Delegator.sol",
  "compiler": {
    "name": "solc",
    "version": "0.4.19+commit.c4cbbb05.Emscripten.clang"
  },
  "schemaVersion": "2.0.0",
  "updatedAt": "2018-05-07T16:45:33.408Z"
}