{
  "contractName": "ExternalStorage",
  "abi": [
    {
      "constant": false,
      "inputs": [
        {
          "name": "clientAddress",
          "type": "address"
        }
      ],
      "name": "checkSubscriber",
      "outputs": [
        {
          "name": "",
          "type": "bool"
        }
      ],
      "payable": false,
      "stateMutability": "nonpayable",
      "type": "function"
    },
    {
      "constant": false,
      "inputs": [
        {
          "name": "clientAddress",
          "type": "address"
        }
      ],
      "name": "addSubscriber",
      "outputs": [],
      "payable": false,
      "stateMutability": "nonpayable",
      "type": "function"
    },
    {
      "constant": false,
      "inputs": [
        {
          "name": "clientAddress",
          "type": "address"
        }
      ],
      "name": "deleteSubscriber",
      "outputs": [],
      "payable": false,
      "stateMutability": "nonpayable",
      "type": "function"
    }
  ],
  "bytecode": "0x6060604052341561000f57600080fd5b6102578061001e6000396000f300606060405260043610610057576000357c0100000000000000000000000000000000000000000000000000000000900463ffffffff1680631e5603181461005c57806394555d1a146100ad5780639701b422146100e6575b600080fd5b341561006757600080fd5b610093600480803573ffffffffffffffffffffffffffffffffffffffff1690602001909190505061011f565b604051808215151515815260200191505060405180910390f35b34156100b857600080fd5b6100e4600480803573ffffffffffffffffffffffffffffffffffffffff16906020019091905050610175565b005b34156100f157600080fd5b61011d600480803573ffffffffffffffffffffffffffffffffffffffff169060200190919050506101d0565b005b6000600660008373ffffffffffffffffffffffffffffffffffffffff1673ffffffffffffffffffffffffffffffffffffffff16815260200190815260200160002060009054906101000a900460ff169050919050565b6001600660008373ffffffffffffffffffffffffffffffffffffffff1673ffffffffffffffffffffffffffffffffffffffff16815260200190815260200160002060006101000a81548160ff02191690831515021790555050565b6000600660008373ffffffffffffffffffffffffffffffffffffffff1673ffffffffffffffffffffffffffffffffffffffff16815260200190815260200160002060006101000a81548160ff021916908315150217905550505600a165627a7a7230582084861c22178139f51eab0ff855b715086794fe1e3eff594dfb7dd9462d534b3f0029",
  "source": "pragma solidity ^0.4.19;\r\n\r\n/**\r\n * @title EternalStorage\r\n * @dev This contract holds all the necessary state variables to carry out the storage of any contract.\r\n */\r\ncontract ExternalStorage {\r\n\tmapping(bytes32 => uint256) internal uintStorage;\r\n\tmapping(bytes32 => string) internal stringStorage;\r\n\tmapping(bytes32 => address) internal addressStorage;\r\n\tmapping(bytes32 => bytes) internal bytesStorage;\r\n\tmapping(bytes32 => bool) internal boolStorage;\r\n\tmapping(bytes32 => int256) internal intStorage;\r\n\t//data to represent the suscriber of the each postMan\r\n\t\r\n\t\r\n\tmapping(address => bool) subscribersMap;\r\n\t\r\n\tfunction checkSubscriber(address clientAddress) public returns(bool){\r\n\t\treturn subscribersMap[clientAddress];\r\n\t}\r\n\tfunction addSubscriber(address clientAddress) public {\r\n\tsubscribersMap[clientAddress]=true;\r\n\t}\r\n\tfunction deleteSubscriber(address clientAddress) public {\r\n\tsubscribersMap[clientAddress]=false;\r\n\t}\r\n\t\r\n\r\n}",
  "sourcePath": "E:\\Blockchain\\Major Project\\contracts\\contracts\\ExternalStorage.sol",
  "compiler": {
    "name": "solc",
    "version": "0.4.19+commit.c4cbbb05.Emscripten.clang"
  },
  "schemaVersion": "2.0.0",
  "updatedAt": "2018-05-07T16:48:58.102Z"
}