{
  "contractName": "postMan",
  "abi": [
    {
      "inputs": [],
      "payable": false,
      "stateMutability": "nonpayable",
      "type": "constructor"
    },
    {
      "constant": false,
      "inputs": [
        {
          "name": "clientAddress",
          "type": "address"
        }
      ],
      "name": "subscribeClient",
      "outputs": [
        {
          "name": "",
          "type": "bool"
        }
      ],
      "payable": false,
      "stateMutability": "nonpayable",
      "type": "function"
    },
    {
      "constant": false,
      "inputs": [
        {
          "name": "clientAddress",
          "type": "address"
        }
      ],
      "name": "unSubscribeClient",
      "outputs": [
        {
          "name": "",
          "type": "bool"
        }
      ],
      "payable": false,
      "stateMutability": "nonpayable",
      "type": "function"
    },
    {
      "constant": false,
      "inputs": [
        {
          "name": "clientAddress",
          "type": "address"
        },
        {
          "name": "_chunkHash",
          "type": "bytes32"
        },
        {
          "name": "_GMHash",
          "type": "bytes32"
        }
      ],
      "name": "initiateContractWithClient",
      "outputs": [
        {
          "name": "",
          "type": "bool"
        }
      ],
      "payable": false,
      "stateMutability": "nonpayable",
      "type": "function"
    }
  ],
  "bytecode": "0x6060604052341561000f57600080fd5b336000806101000a81548173ffffffffffffffffffffffffffffffffffffffff021916908373ffffffffffffffffffffffffffffffffffffffff1602179055506104128061005e6000396000f300606060405260043610610057576000357c0100000000000000000000000000000000000000000000000000000000900463ffffffff16806325afc0ec1461005c5780637f8b6d62146100c7578063823b61ff14610118575b600080fd5b341561006757600080fd5b6100ad600480803573ffffffffffffffffffffffffffffffffffffffff169060200190919080356000191690602001909190803560001916906020019091905050610169565b604051808215151515815260200191505060405180910390f35b34156100d257600080fd5b6100fe600480803573ffffffffffffffffffffffffffffffffffffffff16906020019091905050610268565b604051808215151515815260200191505060405180910390f35b341561012357600080fd5b61014f600480803573ffffffffffffffffffffffffffffffffffffffff16906020019091905050610327565b604051808215151515815260200191505060405180910390f35b6000600160008573ffffffffffffffffffffffffffffffffffffffff1673ffffffffffffffffffffffffffffffffffffffff16815260200190815260200160002060009054906101000a900460ff161561025c5782600260008673ffffffffffffffffffffffffffffffffffffffff1673ffffffffffffffffffffffffffffffffffffffff168152602001908152602001600020600001816000191690555081600260008673ffffffffffffffffffffffffffffffffffffffff1673ffffffffffffffffffffffffffffffffffffffff168152602001908152602001600020600101816000191690555060019050610261565b600090505b9392505050565b6000600160008373ffffffffffffffffffffffffffffffffffffffff1673ffffffffffffffffffffffffffffffffffffffff16815260200190815260200160002060009054906101000a900460ff16151561031d5760018060008473ffffffffffffffffffffffffffffffffffffffff1673ffffffffffffffffffffffffffffffffffffffff16815260200190815260200160002060006101000a81548160ff02191690831515021790555060019050610322565b600090505b919050565b6000600160008373ffffffffffffffffffffffffffffffffffffffff1673ffffffffffffffffffffffffffffffffffffffff16815260200190815260200160002060009054906101000a900460ff16156103dc576000600160008473ffffffffffffffffffffffffffffffffffffffff1673ffffffffffffffffffffffffffffffffffffffff16815260200190815260200160002060006101000a81548160ff021916908315150217905550600190506103e1565b600090505b9190505600a165627a7a72305820731007beaaf7e2b41ce600ced09f9a445695e0db163eb11af4269320f587e1080029",
  "source": "pragma solidity ^0.4.19;\r\ncontract postMan{\r\n\taddress postManAddress;\r\n\t//data to represent the suscriber of the each postMan\r\n\tmapping(address => bool) subcribersMap;\r\n\t//chunk info of each client\r\n\tstruct chunkInfo{\r\n\t\tbytes32 chunkHash;\r\n\t\tbytes32 GMHash;\r\n\t}\r\n\tmapping(address=>chunkInfo) chunkInfoMap;\r\n\tfunction postMan(){\r\n\t\t//saving the postMan address\r\n\t\tpostManAddress=msg.sender;\r\n\t}\r\n\tfunction subscribeClient(address clientAddress)public  returns(bool){\r\n\t\tif(!subcribersMap[clientAddress]){\r\n\t\t//already subscribed\r\n\t\tsubcribersMap[clientAddress]=true;\r\n\t\treturn true;\r\n\t\t}\t\r\n\t\treturn false;\r\n\t}\r\n\tfunction unSubscribeClient(address clientAddress)public  returns(bool){\r\n\t\tif(subcribersMap[clientAddress]){\r\n\t\tsubcribersMap[clientAddress]=false;\r\n\t\treturn true;\r\n\t\t}\r\n\t\treturn false;\r\n\t}\r\n\tfunction initiateContractWithClient(address clientAddress,bytes32 _chunkHash,bytes32 _GMHash) public returns(bool){\r\n\t\t//check if client is subscriber or not\r\n\t\tif(subcribersMap[clientAddress]){\r\n\t\t\tchunkInfoMap[clientAddress].chunkHash=_chunkHash;\r\n\t\t\tchunkInfoMap[clientAddress].GMHash=_GMHash;\r\n\t\t\treturn true;\r\n\t\t}\r\n\t\treturn false;\r\n\t}\r\n\t\r\n}",
  "sourcePath": "E:\\Blockchain\\Major Project\\contracts\\contracts\\postMan.sol",
  "compiler": {
    "name": "solc",
    "version": "0.4.19+commit.c4cbbb05.Emscripten.clang"
  },
  "schemaVersion": "2.0.0",
  "updatedAt": "2018-05-07T16:47:10.814Z"
}