{
  "contractName": "PostManUpgradable",
  "abi": [
    {
      "constant": false,
      "inputs": [],
      "name": "initialize",
      "outputs": [],
      "payable": false,
      "stateMutability": "nonpayable",
      "type": "function"
    },
    {
      "constant": false,
      "inputs": [
        {
          "name": "storageAddress",
          "type": "address"
        },
        {
          "name": "clientAddress",
          "type": "address"
        }
      ],
      "name": "subscribeClient",
      "outputs": [
        {
          "name": "",
          "type": "bool"
        }
      ],
      "payable": false,
      "stateMutability": "nonpayable",
      "type": "function"
    },
    {
      "constant": false,
      "inputs": [
        {
          "name": "storageAddress",
          "type": "address"
        },
        {
          "name": "clientAddress",
          "type": "address"
        }
      ],
      "name": "UnSubscribeClient",
      "outputs": [
        {
          "name": "",
          "type": "bool"
        }
      ],
      "payable": false,
      "stateMutability": "nonpayable",
      "type": "function"
    }
  ],
  "bytecode": "0x6060604052341561000f57600080fd5b6104988061001e6000396000f300606060405260043610610057576000357c0100000000000000000000000000000000000000000000000000000000900463ffffffff1680636fa633e71461005c5780638129fc1c146100cc578063dcc8b05a146100e1575b600080fd5b341561006757600080fd5b6100b2600480803573ffffffffffffffffffffffffffffffffffffffff1690602001909190803573ffffffffffffffffffffffffffffffffffffffff16906020019091905050610151565b604051808215151515815260200191505060405180910390f35b34156100d757600080fd5b6100df6102de565b005b34156100ec57600080fd5b610137600480803573ffffffffffffffffffffffffffffffffffffffff1690602001909190803573ffffffffffffffffffffffffffffffffffffffff169060200190919050506102e0565b604051808215151515815260200191505060405180910390f35b6000808390508073ffffffffffffffffffffffffffffffffffffffff16631e560318846000604051602001526040518263ffffffff167c0100000000000000000000000000000000000000000000000000000000028152600401808273ffffffffffffffffffffffffffffffffffffffff1673ffffffffffffffffffffffffffffffffffffffff168152602001915050602060405180830381600087803b15156101fa57600080fd5b6102c65a03f1151561020b57600080fd5b5050506040518051905015156102d2578073ffffffffffffffffffffffffffffffffffffffff166394555d1a846040518263ffffffff167c0100000000000000000000000000000000000000000000000000000000028152600401808273ffffffffffffffffffffffffffffffffffffffff1673ffffffffffffffffffffffffffffffffffffffff168152602001915050600060405180830381600087803b15156102b557600080fd5b6102c65a03f115156102c657600080fd5b505050600191506102d7565b600091505b5092915050565b565b6000808390508073ffffffffffffffffffffffffffffffffffffffff16631e560318846000604051602001526040518263ffffffff167c0100000000000000000000000000000000000000000000000000000000028152600401808273ffffffffffffffffffffffffffffffffffffffff1673ffffffffffffffffffffffffffffffffffffffff168152602001915050602060405180830381600087803b151561038957600080fd5b6102c65a03f1151561039a57600080fd5b5050506040518051905015610460578073ffffffffffffffffffffffffffffffffffffffff16639701b422846040518263ffffffff167c0100000000000000000000000000000000000000000000000000000000028152600401808273ffffffffffffffffffffffffffffffffffffffff1673ffffffffffffffffffffffffffffffffffffffff168152602001915050600060405180830381600087803b151561044357600080fd5b6102c65a03f1151561045457600080fd5b50505060019150610465565b600091505b50929150505600a165627a7a7230582008e144ee1a2b208bdc89c5c20a2ffa6e0e85d44063d35ddd1e8844cc8878a9c70029",
  "source": "pragma solidity^0.4.19;\r\nimport \"./Upgradable.sol\";\r\nimport \"./ExternalStorage.sol\";\r\ncontract PostManUpgradable is Upgradable{\r\n\tfunction initialize(){\r\n\t}\r\n\tfunction subscribeClient(address storageAddress,address clientAddress)public  returns(bool){\r\n\t\tExternalStorage externalStorage=ExternalStorage(storageAddress);\r\n\t\tif(!externalStorage.checkSubscriber(clientAddress)){\r\n\t\t\texternalStorage.addSubscriber(clientAddress);\r\n\t\t\treturn true;\r\n\t\t}\r\n\t\treturn false;\r\n\t}\r\n\tfunction UnSubscribeClient(address storageAddress,address clientAddress)public  returns(bool){\r\n\t\tExternalStorage externalStorage=ExternalStorage(storageAddress);\r\n\t\tif(externalStorage.checkSubscriber(clientAddress)){\r\n\t\t\texternalStorage.deleteSubscriber(clientAddress);\r\n\t\t\treturn true;\r\n\t\t}\r\n\t\treturn false;\r\n\t}\r\n}\r\n",
  "sourcePath": "E:\\Blockchain\\Major Project\\contracts\\contracts\\PostManUpgradable.sol",
  "compiler": {
    "name": "solc",
    "version": "0.4.19+commit.c4cbbb05.Emscripten.clang"
  },
  "schemaVersion": "2.0.0",
  "updatedAt": "2018-05-07T16:49:07.646Z"
}