{
  "contractName": "postMan",
  "abi": [
    {
      "inputs": [],
      "payable": false,
      "stateMutability": "nonpayable",
      "type": "constructor"
    },
    {
      "constant": true,
      "inputs": [
        {
          "name": "clientAddress",
          "type": "address"
        }
      ],
      "name": "subscribeClient",
      "outputs": [
        {
          "name": "",
          "type": "bool"
        }
      ],
      "payable": false,
      "stateMutability": "view",
      "type": "function"
    },
    {
      "constant": true,
      "inputs": [
        {
          "name": "clientAddress",
          "type": "address"
        }
      ],
      "name": "unSubscribeClient",
      "outputs": [
        {
          "name": "",
          "type": "bool"
        }
      ],
      "payable": false,
      "stateMutability": "view",
      "type": "function"
    }
  ],
  "bytecode": "0x6060604052341561000f57600080fd5b336000806101000a81548173ffffffffffffffffffffffffffffffffffffffff021916908373ffffffffffffffffffffffffffffffffffffffff16021790555061029d8061005e6000396000f30060606040526004361061004c576000357c0100000000000000000000000000000000000000000000000000000000900463ffffffff1680637f8b6d6214610051578063823b61ff146100a2575b600080fd5b341561005c57600080fd5b610088600480803573ffffffffffffffffffffffffffffffffffffffff169060200190919050506100f3565b604051808215151515815260200191505060405180910390f35b34156100ad57600080fd5b6100d9600480803573ffffffffffffffffffffffffffffffffffffffff169060200190919050506101b2565b604051808215151515815260200191505060405180910390f35b6000600160008373ffffffffffffffffffffffffffffffffffffffff1673ffffffffffffffffffffffffffffffffffffffff16815260200190815260200160002060009054906101000a900460ff1615156101a85760018060008473ffffffffffffffffffffffffffffffffffffffff1673ffffffffffffffffffffffffffffffffffffffff16815260200190815260200160002060006101000a81548160ff021916908315150217905550600190506101ad565b600090505b919050565b6000600160008373ffffffffffffffffffffffffffffffffffffffff1673ffffffffffffffffffffffffffffffffffffffff16815260200190815260200160002060009054906101000a900460ff1615610267576000600160008473ffffffffffffffffffffffffffffffffffffffff1673ffffffffffffffffffffffffffffffffffffffff16815260200190815260200160002060006101000a81548160ff0219169083151502179055506001905061026c565b600090505b9190505600a165627a7a723058200860d9fdfc04df0c9af5f71e0263d6483f8bd1b200e27f7e549772c77b0f1b9a0029",
  "source": "pragma solidity ^0.4.19;\r\ncontract postMan{\r\n\taddress postManAddress;\r\n\t//data to represent the suscriber of the each postMan\r\n\tmapping(address => bool) subcribersMap;\r\n\t\r\n\tfunction postMan(){\r\n\t\t//saving the postMan address\r\n\t\tpostManAddress=msg.sender;\r\n\t}\r\n\tfunction subscribeClient(address clientAddress)public view returns(bool){\r\n\t\tif(!subcribersMap[clientAddress]){\r\n\t\t//already subscribed\r\n\t\tsubcribersMap[clientAddress]=true;\r\n\t\treturn true;\r\n\t\t}\t\r\n\t\treturn false;\r\n\t}\r\n\tfunction unSubscribeClient(address clientAddress)public view returns(bool){\r\n\t\tif(subcribersMap[clientAddress]){\r\n\t\tsubcribersMap[clientAddress]=false;\r\n\t\treturn true;\r\n\t\t}\r\n\t\treturn false;\r\n\t}\r\n}\r\n",
  "sourcePath": "E:\\Blockchain\\Major Project\\contracts\\contracts\\postMan.sol",
  "compiler": {
    "name": "solc",
    "version": "0.4.19+commit.c4cbbb05.Emscripten.clang"
  },
  "schemaVersion": "2.0.0",
  "updatedAt": "2018-05-06T13:03:26.775Z"
}